:020000040800F2
:1000000000000120D501000821020008210200089B
:10001000210200082102000821020008000000005F
:1000200000000000000000000000000021020008A5
:10003000210200080000000021020008310B000826
:100040002102000821020008210200082102000804
:1000500021020008210200082102000821020008F4
:1000600021020008210200082102000821020008E4
:1000700021020008210200082102000821020008D4
:100080002102000821020008450B000800000000C2
:100090000000000000000000000000002102000835
:1000A00021020008210200082102000821020008A4
:1000B000250B0008190B00080D0B0008590B000850
:1000C0004D0B0008550B0008490B000821020008E1
:1000D000210200082102000821020008000000009F
:1000E000210200082102000821020008000000008F
:1000F00000000000000000000000000021020008D5
:100100000000000021020008010B00082102000885
:1001100000000000000000000000000000000000DF
:100120002102000821020008210200082102000823
:100130002102000800000000000000000000000094
:100140000000000000000000000000002102000884
:1001500021020008210200082102000821020008F3
:10016000510B0008410B00080000000000000000D7
:10017000000000000000000000000000000000007F
:100180000000000021020008000000000000000044
:040190002102000840
:1001940010B5054C237833B9044B13B10448AFF3BD
:1001A40000800123237010BD000000200000000027
:1001B4005C0B000808B5034B1BB103490348AFF3BC
:1001C400008008BD00000000040000205C0B000853
:1001D400DFF830D0002103E00B4B5B58435004316F
:1001E4000A480B4B42189A42F6D30A4A02E000230B
:1001F40042F8043B084B9A42F9D300F09FF900F00F
:1002040019FA7047000001208C0B00080000002040
:10021400000000200000002074000020FEE7000021
:100224002DE9F041494C0023A58AA382258B238321
:1002340023889BB243F48073238023889BB243F4C6
:100244008063238041F2883301E0013B19D0A58A01
:10025400ED07FAD53E4F3D4D41F2883618232382EF
:1002640033463E600026AC8AA40702D5AC8A240635
:100274000CD4013B4FF00106F5D13B601846BDE8B4
:10028400F081334A13601846BDE8F08106B13B6043
:100294002E4B00249D8A9C8280B21D8B1C83188265
:1002A400188880B240F48070188041F2883001E0F0
:1002B400013840D09C8AE507FAD51920188200201D
:1002C4009C8A98821C8B214D188341F2883001E06E
:1002D400013830D0AB8A9C07FAD5AB8A1B4C2B8BE8
:1002E4000020064602F1010E02F1FF3841F2883C7B
:1002F400C7F800C0002541F2883303E0013B4FF00A
:10030400010503D0A28A5206F8D505B13B60A38A41
:100314005B0604D5238A01F8013B013080B2013623
:1003240076450BD0B045E3D1238823F480631B04C6
:100334001B0C2380DCE73860BDE8F081034A138896
:100344009BB243F40073C0B2138098E7005400409A
:100354004800002070B43D4A0023948A9382148B91
:10036400138313889BB243F48073138013889BB266
:1003740043F48063138041F2883301E0013B18D0D9
:10038400948AE407FAD5324D304C460041F2883362
:10039400168218462B600022A38A9B0702D5A38AE3
:1003A4001B060BD401384FF00102F5D1286070BC54
:1003B4007047274A1360184670BC704702B1286022
:1003C400224B0022988A9A8289B2188B1A83198246
:1003D4001A8892B242F480721A8041F2883001E0A5
:1003E4000138E3D09A8AD407FAD546F0010018827E
:1003F40000219A8A99821A8B144A198341F288300F
:1004040001E00138D2D0938A9907FAD541F28830B5
:10041400938A0E49138B2860002203E001384FF0C1
:100424000102C3D08B8A5B06F8D502B12860074A63
:10043400138823F480631B041B0C138013889BB262
:1004440043F400731380108AC0B2B0E70054004034
:100454004800002010B4334B5A68520247D4324A41
:1004640030494B685B020BD44B6830484968C3F38E
:10047400881301F03F01B3FBF1F300FB03F31360B6
:10048400284B28499B6813F00C0F04BF274B53607B
:10049400244B9B68C3F38103012B04BF244B53609B
:1004A4008B68C3F38103022B08D14B681168C3F333
:1004B400014301335B00B1FBF3F3536019491D4859
:1004C4008C685368C4F30314045DE34093608C6840
:1004D400C4F38224045D23FA04F4D4608968C1F36C
:1004E4004231415CCB4013615DF8044B704759685D
:1004F4005B689FED116A0C4AC1F3881107EE901AEC
:1005040003F03F03F8EEE76A07EE903AB8EEE77AB5
:10051400C6EE877A67EE867AFCEEE77AC2ED007A59
:100524009EE700BF00380240340000200024F4009D
:1005340040787D01740B000820BCBE4B3749384B12
:10054400D1F88820374842F47002C1F888201A682C
:10055400002142F001021A6099601A6822F0847244
:1005640022F480321A6058601A6882B022F4802221
:100574001A60D960009101911A6842F480321A60BD
:1005840003E0009AB2F5A04F09D01A6802F40032D1
:100594000192009A01320092019A002AF1D0204B74
:1005A4001B6813F4003318BF01230193019B012B33
:1005B40005D01A4B4FF000629A6002B07047184B96
:1005C40019491A6C194842F080521A640A6842F4B4
:1005D40040420A609A689A609A689A609A6842F4FB
:1005E40080529A6058601A6842F080721A601A68E1
:1005F4009201FCD50E4A0A4940F2027010609A68D2
:1006040022F003029A609A6842F002029A608B68B0
:1006140003F00C03082BFAD1CBE700BF00ED00E098
:100624000038024010300024007000401954410783
:10063400003C02402DE98048B74CB84B226C196845
:10064400B74FB84BB84EDFF838A3DFF838C3B74D0F
:10065400DFF834B3DFF83493DFF83483DFF834E3BE
:1006640083B042F080520091386801902264226B7A
:10067400AF4942F001022263226B42F0020222637C
:10068400226B42F004022263626C42F00102626453
:10069400226C42F002022264226C42F004022264C0
:1006A400226C42F008022264226B42F4800222632C
:1006B400626C42F480726264626C42F010026264A2
:1006C400626C42F020026264626C42F480426264B2
:1006D4001A8B92B20A4042F060021A839A8B92B249
:1006E4000A409A831A8B934992B20A4042F0040258
:1006F4001A839A8B92B20A409A831A8C22F48852F3
:1007040022F011021204120C42F001021A8440F287
:10071400A3111A8D32681985D96A01F47A61D962F4
:10072400DAF80000DCF800100540019821F4E841F3
:1007340021F03D0120F4074045EA0B0B41F44071E0
:1007440020F0F30022F07F42CAF800B022F0FF024A
:10075400CCF8001038607849D9F80070774D0868F3
:100764007749DFF8DCA1DFF830C242F0085242F0EA
:1007740022023D401F883260014045F02262009809
:10078400D8F800506D4E05EA0A0A0640DEF800501B
:100794006C481FFA87FB6C4F2F40056800F580609A
:1007A4004BF0010B42F42A620068A3F800B0C9F8C8
:1007B4000020664A4AEA0C0CDFF8E0A1C8F800C041
:1007C4003243564EDFF8D88147EA0A0ACEF800A031
:1007D40041F00041326025F0FF05574A20F0FF0048
:1007E40040F0440041F4B44145F011051160C2F8F1
:1007F40018049561B3F84410554A564D6FEA4141C7
:100804006FEA5141002789B2A3F844105F639F63E4
:100814001785D36AD36213889BB243F00103138014
:1008240013899BB223F0070343F003031381138955
:100834009BB243F4706313816F62FFF70BFED8F829
:100844000C304549454AA1FB0301C1F34F312985C9
:10085400298D93603320642689B2D07006FB01F1A0
:10086400B3FBF1F3EB622B8D013B9BB22B85AB8980
:100874009BB243F00103AB812B889BB243F001038D
:100884002B8020231371FFF7E5FDD8F8102034499D
:10089400344B02F59652A1FB0212C2F38F221A8145
:1008A4009A8992B242F008029A819A8992B242F0ED
:1008B40004029A819A8992B242F400529A81FFF713
:1008C400C9FDD8F810302849284A03F56143A1FB33
:1008D40003131B0C138193899BB243F00803938188
:1008E40093899BB243F400539381214B4FF0005200
:1008F4001A604FF480221A60216C1E4A1E4D1F4B51
:10090400DFF8A0E041F4001107204FF0F00C21645F
:10091400C2F804E048E000BF003802400804024086
:1009240004000240000C0040200002400FF0C0C050
:100934008F8FFFFFFBFBFFFF0C0002400CF0C0C0D9
:10094400F000C03F24000240F003C03FA20A2A2A5C
:1009540000080040000400405917B7D1500000209F
:10096400B5814E1B00100140C5B3A2910014014093
:1009740000E100E010E000E000ED00E00054004081
:10098400000402400404024003001A150C0402404F
:1009940008000240000002400A0A2A800AA71A003E
:1009A400340000201F48010085F823C097601060C0
:1009B4001A8822F001021204120C1A809A8892B248
:1009C40022F03F0242F02A029A809A8B02F470428B
:1009D40042F069029A831A8C92B222F03F0242F0EA
:1009E40012021A841A8892B242F001021A801A8BF7
:1009F4009107C2F3400060D43D4941F28834D025C8
:100A04001A8822F001021204120C1A809A8A98821F
:100A14001A8B18831A8892B242F001021A801A883B
:100A240092B242F480721A8000270C6041F288323C
:100A340003E0013A4FF0010705D0B3F814C01CF0ED
:100A4400010FF6D007B10A609A8AD20714D4013E86
:100A5400D6D1284C04F10F0502210C20FFF77AFCB3
:100A6400A37B03F00103072229460320A373002B71
:100A7400F2D0FFF7D5FBEFE71A88570532D51D8270
:100A840000270C6041F2883203E0013A4FF001077D
:100A940005D0B3F814C01CF0020FF6D007B10A60F9
:100AA4009A8A9207D3D51A8892B242F400721A80B5
:100AB40075216820FFF74EFCFEE7236C23F4001336
:100AC4002364BFF34F8F236A43F400132362236A22
:100AD40023F400132362BFF34F8F074B4FF40072CC
:100AE4001A60FEE71A8892B242F480621A80C6E75E
:100AF4004C0000201C00002018040240014B00227E
:100B04001A827047000C0040014B00221A82704781
:100B140000080040014B00221A8270470004004084
:100B24004FF0804300221A82704700BF024A1368C4
:100B340001331360704700BF70000020704700BF8E
:100B4400704700BF704700BF704700BF704700BFC9
:100B5400704700BF704700BFF8B500BFF8BC08BCC1
:100B64009E467047F8B500BFF8BC08BC9E46704767
:100B7400000000000102030401020304060708093F
:040B8400B9010008AB
:040B880095010008CB
:04000005080001D519
:00000001FF
